{
  "_format": "hh-sol-artifact-1",
  "contractName": "Events",
  "sourceName": "contracts/events.sol",
  "abi": [
    {
      "inputs": [],
      "stateMutability": "nonpayable",
      "type": "constructor"
    },
    {
      "anonymous": false,
      "inputs": [
        {
          "indexed": true,
          "internalType": "address",
          "name": "owner",
          "type": "address"
        },
        {
          "indexed": true,
          "internalType": "address",
          "name": "approved",
          "type": "address"
        },
        {
          "indexed": true,
          "internalType": "uint256",
          "name": "tokenId",
          "type": "uint256"
        }
      ],
      "name": "Approval",
      "type": "event"
    },
    {
      "anonymous": false,
      "inputs": [
        {
          "indexed": true,
          "internalType": "address",
          "name": "owner",
          "type": "address"
        },
        {
          "indexed": true,
          "internalType": "address",
          "name": "operator",
          "type": "address"
        },
        {
          "indexed": false,
          "internalType": "bool",
          "name": "approved",
          "type": "bool"
        }
      ],
      "name": "ApprovalForAll",
      "type": "event"
    },
    {
      "anonymous": false,
      "inputs": [
        {
          "indexed": false,
          "internalType": "uint256",
          "name": "eventId",
          "type": "uint256"
        }
      ],
      "name": "EventCreated",
      "type": "event"
    },
    {
      "anonymous": false,
      "inputs": [
        {
          "indexed": false,
          "internalType": "uint256",
          "name": "eventId",
          "type": "uint256"
        }
      ],
      "name": "TicketsOver",
      "type": "event"
    },
    {
      "anonymous": false,
      "inputs": [
        {
          "indexed": true,
          "internalType": "address",
          "name": "from",
          "type": "address"
        },
        {
          "indexed": true,
          "internalType": "address",
          "name": "to",
          "type": "address"
        },
        {
          "indexed": true,
          "internalType": "uint256",
          "name": "tokenId",
          "type": "uint256"
        }
      ],
      "name": "Transfer",
      "type": "event"
    },
    {
      "inputs": [
        {
          "internalType": "address",
          "name": "to",
          "type": "address"
        },
        {
          "internalType": "uint256",
          "name": "tokenId",
          "type": "uint256"
        }
      ],
      "name": "approve",
      "outputs": [],
      "stateMutability": "nonpayable",
      "type": "function"
    },
    {
      "inputs": [
        {
          "internalType": "address",
          "name": "owner",
          "type": "address"
        }
      ],
      "name": "balanceOf",
      "outputs": [
        {
          "internalType": "uint256",
          "name": "",
          "type": "uint256"
        }
      ],
      "stateMutability": "view",
      "type": "function"
    },
    {
      "inputs": [
        {
          "internalType": "uint256",
          "name": "eventId",
          "type": "uint256"
        }
      ],
      "name": "buyTicket",
      "outputs": [],
      "stateMutability": "payable",
      "type": "function"
    },
    {
      "inputs": [
        {
          "internalType": "uint256",
          "name": "numberOfTickets",
          "type": "uint256"
        },
        {
          "internalType": "uint256",
          "name": "pricePerTicket",
          "type": "uint256"
        }
      ],
      "name": "createEvent",
      "outputs": [],
      "stateMutability": "nonpayable",
      "type": "function"
    },
    {
      "inputs": [
        {
          "internalType": "uint256",
          "name": "",
          "type": "uint256"
        }
      ],
      "name": "events",
      "outputs": [
        {
          "internalType": "uint256",
          "name": "fundsCollected",
          "type": "uint256"
        },
        {
          "internalType": "uint256",
          "name": "ticketPrice",
          "type": "uint256"
        },
        {
          "internalType": "uint256",
          "name": "availableTickets",
          "type": "uint256"
        },
        {
          "internalType": "address",
          "name": "eventCreator",
          "type": "address"
        }
      ],
      "stateMutability": "view",
      "type": "function"
    },
    {
      "inputs": [
        {
          "internalType": "uint256",
          "name": "tokenId",
          "type": "uint256"
        }
      ],
      "name": "getApproved",
      "outputs": [
        {
          "internalType": "address",
          "name": "",
          "type": "address"
        }
      ],
      "stateMutability": "view",
      "type": "function"
    },
    {
      "inputs": [
        {
          "internalType": "address",
          "name": "owner",
          "type": "address"
        },
        {
          "internalType": "address",
          "name": "operator",
          "type": "address"
        }
      ],
      "name": "isApprovedForAll",
      "outputs": [
        {
          "internalType": "bool",
          "name": "",
          "type": "bool"
        }
      ],
      "stateMutability": "view",
      "type": "function"
    },
    {
      "inputs": [],
      "name": "name",
      "outputs": [
        {
          "internalType": "string",
          "name": "",
          "type": "string"
        }
      ],
      "stateMutability": "view",
      "type": "function"
    },
    {
      "inputs": [
        {
          "internalType": "uint256",
          "name": "tokenId",
          "type": "uint256"
        }
      ],
      "name": "ownerOf",
      "outputs": [
        {
          "internalType": "address",
          "name": "",
          "type": "address"
        }
      ],
      "stateMutability": "view",
      "type": "function"
    },
    {
      "inputs": [
        {
          "internalType": "address",
          "name": "from",
          "type": "address"
        },
        {
          "internalType": "address",
          "name": "to",
          "type": "address"
        },
        {
          "internalType": "uint256",
          "name": "tokenId",
          "type": "uint256"
        }
      ],
      "name": "safeTransferFrom",
      "outputs": [],
      "stateMutability": "nonpayable",
      "type": "function"
    },
    {
      "inputs": [
        {
          "internalType": "address",
          "name": "from",
          "type": "address"
        },
        {
          "internalType": "address",
          "name": "to",
          "type": "address"
        },
        {
          "internalType": "uint256",
          "name": "tokenId",
          "type": "uint256"
        },
        {
          "internalType": "bytes",
          "name": "_data",
          "type": "bytes"
        }
      ],
      "name": "safeTransferFrom",
      "outputs": [],
      "stateMutability": "nonpayable",
      "type": "function"
    },
    {
      "inputs": [
        {
          "internalType": "address",
          "name": "operator",
          "type": "address"
        },
        {
          "internalType": "bool",
          "name": "approved",
          "type": "bool"
        }
      ],
      "name": "setApprovalForAll",
      "outputs": [],
      "stateMutability": "nonpayable",
      "type": "function"
    },
    {
      "inputs": [
        {
          "internalType": "bytes4",
          "name": "interfaceId",
          "type": "bytes4"
        }
      ],
      "name": "supportsInterface",
      "outputs": [
        {
          "internalType": "bool",
          "name": "",
          "type": "bool"
        }
      ],
      "stateMutability": "view",
      "type": "function"
    },
    {
      "inputs": [],
      "name": "symbol",
      "outputs": [
        {
          "internalType": "string",
          "name": "",
          "type": "string"
        }
      ],
      "stateMutability": "view",
      "type": "function"
    },
    {
      "inputs": [
        {
          "internalType": "uint256",
          "name": "",
          "type": "uint256"
        }
      ],
      "name": "ticketToEvent",
      "outputs": [
        {
          "internalType": "uint256",
          "name": "",
          "type": "uint256"
        }
      ],
      "stateMutability": "view",
      "type": "function"
    },
    {
      "inputs": [
        {
          "internalType": "uint256",
          "name": "tokenId",
          "type": "uint256"
        }
      ],
      "name": "tokenURI",
      "outputs": [
        {
          "internalType": "string",
          "name": "",
          "type": "string"
        }
      ],
      "stateMutability": "view",
      "type": "function"
    },
    {
      "inputs": [
        {
          "internalType": "address",
          "name": "from",
          "type": "address"
        },
        {
          "internalType": "address",
          "name": "to",
          "type": "address"
        },
        {
          "internalType": "uint256",
          "name": "tokenId",
          "type": "uint256"
        }
      ],
      "name": "transferFrom",
      "outputs": [],
      "stateMutability": "nonpayable",
      "type": "function"
    },
    {
      "inputs": [
        {
          "internalType": "uint256",
          "name": "eventId",
          "type": "uint256"
        },
        {
          "internalType": "string",
          "name": "_message",
          "type": "string"
        },
        {
          "internalType": "uint8",
          "name": "v",
          "type": "uint8"
        },
        {
          "internalType": "bytes32",
          "name": "r",
          "type": "bytes32"
        },
        {
          "internalType": "bytes32",
          "name": "s",
          "type": "bytes32"
        }
      ],
      "name": "verifyTicketOwner",
      "outputs": [
        {
          "internalType": "bool",
          "name": "",
          "type": "bool"
        }
      ],
      "stateMutability": "view",
      "type": "function"
    },
    {
      "inputs": [],
      "name": "withdrawFunds",
      "outputs": [],
      "stateMutability": "nonpayable",
      "type": "function"
    }
  ],
  "bytecode": "0x60806040523480156200001157600080fd5b506040518060400160405280600f81526020017f5355206576656e742073797374656d00000000000000000000000000000000008152506040518060400160405280600381526020017f5355450000000000000000000000000000000000000000000000000000000000815250816000908051906020019062000096929190620000b8565b508060019080519060200190620000af929190620000b8565b505050620001cd565b828054620000c69062000168565b90600052602060002090601f016020900481019282620000ea576000855562000136565b82601f106200010557805160ff191683800117855562000136565b8280016001018555821562000136579182015b828111156200013557825182559160200191906001019062000118565b5b50905062000145919062000149565b5090565b5b80821115620001645760008160009055506001016200014a565b5090565b600060028204905060018216806200018157607f821691505b602082108114156200019857620001976200019e565b5b50919050565b7f4e487b7100000000000000000000000000000000000000000000000000000000600052602260045260246000fd5b6138b880620001dd6000396000f3fe6080604052600436106101145760003560e01c806367dd74ca116100a0578063b88d4fde11610064578063b88d4fde146103a3578063bdff7627146103cc578063c87b56dd14610409578063e985e9c514610446578063f6ac04da1461048357610114565b806367dd74ca146102cd57806370a08231146102e9578063790c01251461032657806395d89b411461034f578063a22cb4651461037a57610114565b80630b791430116100e75780630b791430146101e757806323b872dd1461022757806324600fc31461025057806342842e0e146102675780636352211e1461029057610114565b806301ffc9a71461011957806306fdde0314610156578063081812fc14610181578063095ea7b3146101be575b600080fd5b34801561012557600080fd5b50610140600480360381019061013b91906125a5565b6104c0565b60405161014d9190612b64565b60405180910390f35b34801561016257600080fd5b5061016b6105a2565b6040516101789190612bc4565b60405180910390f35b34801561018d57600080fd5b506101a860048036038101906101a391906125f7565b610634565b6040516101b59190612afd565b60405180910390f35b3480156101ca57600080fd5b506101e560048036038101906101e09190612569565b6106b9565b005b3480156101f357600080fd5b5061020e600480360381019061020991906125f7565b6107d1565b60405161021e9493929190612e41565b60405180910390f35b34801561023357600080fd5b5061024e60048036038101906102499190612463565b610831565b005b34801561025c57600080fd5b50610265610891565b005b34801561027357600080fd5b5061028e60048036038101906102899190612463565b610b4f565b005b34801561029c57600080fd5b506102b760048036038101906102b291906125f7565b610b6f565b6040516102c49190612afd565b60405180910390f35b6102e760048036038101906102e291906125f7565b610c21565b005b3480156102f557600080fd5b50610310600480360381019061030b91906123fe565b610f11565b60405161031d9190612e26565b60405180910390f35b34801561033257600080fd5b5061034d600480360381019061034891906126af565b610fc9565b005b34801561035b57600080fd5b5061036461114b565b6040516103719190612bc4565b60405180910390f35b34801561038657600080fd5b506103a1600480360381019061039c919061252d565b6111dd565b005b3480156103af57600080fd5b506103ca60048036038101906103c591906124b2565b61135e565b005b3480156103d857600080fd5b506103f360048036038101906103ee9190612620565b6113c0565b6040516104009190612b64565b60405180910390f35b34801561041557600080fd5b50610430600480360381019061042b91906125f7565b6114e1565b60405161043d9190612bc4565b60405180910390f35b34801561045257600080fd5b5061046d60048036038101906104689190612427565b611588565b60405161047a9190612b64565b60405180910390f35b34801561048f57600080fd5b506104aa60048036038101906104a591906125f7565b61161c565b6040516104b79190612e26565b60405180910390f35b60007f80ac58cd000000000000000000000000000000000000000000000000000000007bffffffffffffffffffffffffffffffffffffffffffffffffffffffff1916827bffffffffffffffffffffffffffffffffffffffffffffffffffffffff1916148061058b57507f5b5e139f000000000000000000000000000000000000000000000000000000007bffffffffffffffffffffffffffffffffffffffffffffffffffffffff1916827bffffffffffffffffffffffffffffffffffffffffffffffffffffffff1916145b8061059b575061059a82611634565b5b9050919050565b6060600080546105b19061319e565b80601f01602080910402602001604051908101604052809291908181526020018280546105dd9061319e565b801561062a5780601f106105ff5761010080835404028352916020019161062a565b820191906000526020600020905b81548152906001019060200180831161060d57829003601f168201915b5050505050905090565b600061063f8261169e565b61067e576040517f08c379a000000000000000000000000000000000000000000000000000000000815260040161067590612d66565b60405180910390fd5b6004600083815260200190815260200160002060009054906101000a900473ffffffffffffffffffffffffffffffffffffffff169050919050565b60006106c482610b6f565b90508073ffffffffffffffffffffffffffffffffffffffff168373ffffffffffffffffffffffffffffffffffffffff161415610735576040517f08c379a000000000000000000000000000000000000000000000000000000000815260040161072c90612dc6565b60405180910390fd5b8073ffffffffffffffffffffffffffffffffffffffff1661075461170a565b73ffffffffffffffffffffffffffffffffffffffff16148061078357506107828161077d61170a565b611588565b5b6107c2576040517f08c379a00000000000000000000000000000000000000000000000000000000081526004016107b990612ce6565b60405180910390fd5b6107cc8383611712565b505050565b600781815481106107e157600080fd5b90600052602060002090600402016000915090508060000154908060010154908060020154908060030160009054906101000a900473ffffffffffffffffffffffffffffffffffffffff16905084565b61084261083c61170a565b826117cb565b610881576040517f08c379a000000000000000000000000000000000000000000000000000000000815260040161087890612e06565b60405180910390fd5b61088c8383836118a9565b505050565b6000805b600860003373ffffffffffffffffffffffffffffffffffffffff1673ffffffffffffffffffffffffffffffffffffffff16815260200190815260200160002080549050811015610a9e576007600860003373ffffffffffffffffffffffffffffffffffffffff1673ffffffffffffffffffffffffffffffffffffffff1681526020019081526020016000208281548110610958577f4e487b7100000000000000000000000000000000000000000000000000000000600052603260045260246000fd5b90600052602060002001548154811061099a577f4e487b7100000000000000000000000000000000000000000000000000000000600052603260045260246000fd5b906000526020600020906004020160000154826109b79190612f5b565b915060006007600860003373ffffffffffffffffffffffffffffffffffffffff1673ffffffffffffffffffffffffffffffffffffffff1681526020019081526020016000208381548110610a34577f4e487b7100000000000000000000000000000000000000000000000000000000600052603260045260246000fd5b906000526020600020015481548110610a76577f4e487b7100000000000000000000000000000000000000000000000000000000600052603260045260246000fd5b9060005260206000209060040201600001819055508080610a9690613201565b915050610895565b5060003373ffffffffffffffffffffffffffffffffffffffff1682604051610ac590612ae8565b60006040518083038185875af1925050503d8060008114610b02576040519150601f19603f3d011682016040523d82523d6000602084013e610b07565b606091505b5050905080610b4b576040517f08c379a0000000000000000000000000000000000000000000000000000000008152600401610b4290612de6565b60405180910390fd5b5050565b610b6a8383836040518060200160405280600081525061135e565b505050565b6000806002600084815260200190815260200160002060009054906101000a900473ffffffffffffffffffffffffffffffffffffffff169050600073ffffffffffffffffffffffffffffffffffffffff168173ffffffffffffffffffffffffffffffffffffffff161415610c18576040517f08c379a0000000000000000000000000000000000000000000000000000000008152600401610c0f90612d26565b60405180910390fd5b80915050919050565b8060078054905011610c68576040517f08c379a0000000000000000000000000000000000000000000000000000000008152600401610c5f90612cc6565b60405180910390fd5b600060078281548110610ca4577f4e487b7100000000000000000000000000000000000000000000000000000000600052603260045260246000fd5b90600052602060002090600402016002015411610cf6576040517f08c379a0000000000000000000000000000000000000000000000000000000008152600401610ced90612be6565b60405180910390fd5b60078181548110610d30577f4e487b7100000000000000000000000000000000000000000000000000000000600052603260045260246000fd5b906000526020600020906004020160010154341015610d84576040517f08c379a0000000000000000000000000000000000000000000000000000000008152600401610d7b90612c46565b60405180910390fd5b60078181548110610dbe577f4e487b7100000000000000000000000000000000000000000000000000000000600052603260045260246000fd5b90600052602060002090600402016002016000815480929190610de090613174565b91905055503460078281548110610e20577f4e487b7100000000000000000000000000000000000000000000000000000000600052603260045260246000fd5b90600052602060002090600402016000016000828254610e409190612f5b565b925050819055506000610e536006611b05565b9050610e5f6006611b13565b816009600083815260200190815260200160002081905550610e813382611b29565b600060078381548110610ebd577f4e487b7100000000000000000000000000000000000000000000000000000000600052603260045260246000fd5b9060005260206000209060040201600201541415610f0d577fd2811f2f9a7e8a12ed9066b16ddb2dde40c6eb154f3b914f32af2a53b6a80cc582604051610f049190612e26565b60405180910390a15b5050565b60008073ffffffffffffffffffffffffffffffffffffffff168273ffffffffffffffffffffffffffffffffffffffff161415610f82576040517f08c379a0000000000000000000000000000000000000000000000000000000008152600401610f7990612d06565b60405180910390fd5b600360008373ffffffffffffffffffffffffffffffffffffffff1673ffffffffffffffffffffffffffffffffffffffff168152602001908152602001600020549050919050565b60076040518060800160405280600081526020018381526020018481526020013373ffffffffffffffffffffffffffffffffffffffff16815250908060018154018082558091505060019003906000526020600020906004020160009091909190915060008201518160000155602082015181600101556040820151816002015560608201518160030160006101000a81548173ffffffffffffffffffffffffffffffffffffffff021916908373ffffffffffffffffffffffffffffffffffffffff1602179055505050600060016007805490506110a79190613073565b9050600860003373ffffffffffffffffffffffffffffffffffffffff1673ffffffffffffffffffffffffffffffffffffffff1681526020019081526020016000208190806001815401808255809150506001900390600052602060002001600090919091909150557f748ff5cfd7b66bdd8e21581c2a864756fe7085378c0003183e579bfafba283258160405161113e9190612e26565b60405180910390a1505050565b60606001805461115a9061319e565b80601f01602080910402602001604051908101604052809291908181526020018280546111869061319e565b80156111d35780601f106111a8576101008083540402835291602001916111d3565b820191906000526020600020905b8154815290600101906020018083116111b657829003601f168201915b5050505050905090565b6111e561170a565b73ffffffffffffffffffffffffffffffffffffffff168273ffffffffffffffffffffffffffffffffffffffff161415611253576040517f08c379a000000000000000000000000000000000000000000000000000000000815260040161124a90612c86565b60405180910390fd5b806005600061126061170a565b73ffffffffffffffffffffffffffffffffffffffff1673ffffffffffffffffffffffffffffffffffffffff16815260200190815260200160002060008473ffffffffffffffffffffffffffffffffffffffff1673ffffffffffffffffffffffffffffffffffffffff16815260200190815260200160002060006101000a81548160ff0219169083151502179055508173ffffffffffffffffffffffffffffffffffffffff1661130d61170a565b73ffffffffffffffffffffffffffffffffffffffff167f17307eab39ab6107e8899845ad3d59bd9653f200f220920489ca2b5937696c31836040516113529190612b64565b60405180910390a35050565b61136f61136961170a565b836117cb565b6113ae576040517f08c379a00000000000000000000000000000000000000000000000000000000081526004016113a590612e06565b60405180910390fd5b6113ba84848484611cf7565b50505050565b60008060016113cf8751611d53565b876040516020016113e1929190612ab9565b60405160208183030381529060405280519060200120868686604051600081526020016040526040516114179493929190612b7f565b6020604051602081039080840390855afa158015611439573d6000803e3d6000fd5b50505060206040510351905060005b6114526006611b05565b8110156114d1578760096000838152602001908152602001600020541480156114ae57508173ffffffffffffffffffffffffffffffffffffffff1661149682610b6f565b73ffffffffffffffffffffffffffffffffffffffff16145b156114be576001925050506114d8565b80806114c990613201565b915050611448565b5060009150505b95945050505050565b60606114ec8261169e565b61152b576040517f08c379a000000000000000000000000000000000000000000000000000000000815260040161152290612da6565b60405180910390fd5b6000611535611f28565b905060008151116115555760405180602001604052806000815250611580565b8061155f84611f3f565b604051602001611570929190612a95565b6040516020818303038152906040525b915050919050565b6000600560008473ffffffffffffffffffffffffffffffffffffffff1673ffffffffffffffffffffffffffffffffffffffff16815260200190815260200160002060008373ffffffffffffffffffffffffffffffffffffffff1673ffffffffffffffffffffffffffffffffffffffff16815260200190815260200160002060009054906101000a900460ff16905092915050565b60096020528060005260406000206000915090505481565b60007f01ffc9a7000000000000000000000000000000000000000000000000000000007bffffffffffffffffffffffffffffffffffffffffffffffffffffffff1916827bffffffffffffffffffffffffffffffffffffffffffffffffffffffff1916149050919050565b60008073ffffffffffffffffffffffffffffffffffffffff166002600084815260200190815260200160002060009054906101000a900473ffffffffffffffffffffffffffffffffffffffff1673ffffffffffffffffffffffffffffffffffffffff1614159050919050565b600033905090565b816004600083815260200190815260200160002060006101000a81548173ffffffffffffffffffffffffffffffffffffffff021916908373ffffffffffffffffffffffffffffffffffffffff160217905550808273ffffffffffffffffffffffffffffffffffffffff1661178583610b6f565b73ffffffffffffffffffffffffffffffffffffffff167f8c5be1e5ebec7d5bd14f71427d1e84f3dd0314c0f7b2291e5b200ac8c7c3b92560405160405180910390a45050565b60006117d68261169e565b611815576040517f08c379a000000000000000000000000000000000000000000000000000000000815260040161180c90612ca6565b60405180910390fd5b600061182083610b6f565b90508073ffffffffffffffffffffffffffffffffffffffff168473ffffffffffffffffffffffffffffffffffffffff16148061188f57508373ffffffffffffffffffffffffffffffffffffffff1661187784610634565b73ffffffffffffffffffffffffffffffffffffffff16145b806118a0575061189f8185611588565b5b91505092915050565b8273ffffffffffffffffffffffffffffffffffffffff166118c982610b6f565b73ffffffffffffffffffffffffffffffffffffffff161461191f576040517f08c379a000000000000000000000000000000000000000000000000000000000815260040161191690612d86565b60405180910390fd5b600073ffffffffffffffffffffffffffffffffffffffff168273ffffffffffffffffffffffffffffffffffffffff16141561198f576040517f08c379a000000000000000000000000000000000000000000000000000000000815260040161198690612c66565b60405180910390fd5b61199a8383836120ec565b6119a5600082611712565b6001600360008573ffffffffffffffffffffffffffffffffffffffff1673ffffffffffffffffffffffffffffffffffffffff16815260200190815260200160002060008282546119f59190613073565b925050819055506001600360008473ffffffffffffffffffffffffffffffffffffffff1673ffffffffffffffffffffffffffffffffffffffff1681526020019081526020016000206000828254611a4c9190612f5b565b92505081905550816002600083815260200190815260200160002060006101000a81548173ffffffffffffffffffffffffffffffffffffffff021916908373ffffffffffffffffffffffffffffffffffffffff160217905550808273ffffffffffffffffffffffffffffffffffffffff168473ffffffffffffffffffffffffffffffffffffffff167fddf252ad1be2c89b69c2b068fc378daa952ba7f163c4a11628f55a4df523b3ef60405160405180910390a4505050565b600081600001549050919050565b6001816000016000828254019250508190555050565b600073ffffffffffffffffffffffffffffffffffffffff168273ffffffffffffffffffffffffffffffffffffffff161415611b99576040517f08c379a0000000000000000000000000000000000000000000000000000000008152600401611b9090612d46565b60405180910390fd5b611ba28161169e565b15611be2576040517f08c379a0000000000000000000000000000000000000000000000000000000008152600401611bd990612c26565b60405180910390fd5b611bee600083836120ec565b6001600360008473ffffffffffffffffffffffffffffffffffffffff1673ffffffffffffffffffffffffffffffffffffffff1681526020019081526020016000206000828254611c3e9190612f5b565b92505081905550816002600083815260200190815260200160002060006101000a81548173ffffffffffffffffffffffffffffffffffffffff021916908373ffffffffffffffffffffffffffffffffffffffff160217905550808273ffffffffffffffffffffffffffffffffffffffff16600073ffffffffffffffffffffffffffffffffffffffff167fddf252ad1be2c89b69c2b068fc378daa952ba7f163c4a11628f55a4df523b3ef60405160405180910390a45050565b611d028484846118a9565b611d0e848484846120f1565b611d4d576040517f08c379a0000000000000000000000000000000000000000000000000000000008152600401611d4490612c06565b60405180910390fd5b50505050565b60606000821415611d9b576040518060400160405280600181526020017f30000000000000000000000000000000000000000000000000000000000000008152509050611f23565b600082905060005b60008214611dcd578080611db690613201565b915050600a82611dc69190612fe8565b9150611da3565b60008167ffffffffffffffff811115611e0f577f4e487b7100000000000000000000000000000000000000000000000000000000600052604160045260246000fd5b6040519080825280601f01601f191660200182016040528015611e415781602001600182028036833780820191505090505b50905060008290505b60008614611f1b57600181611e5f9190613073565b90506000600a8088611e719190612fe8565b611e7b9190613019565b87611e869190613073565b6030611e929190612fb1565b905060008160f81b905080848481518110611ed6577f4e487b7100000000000000000000000000000000000000000000000000000000600052603260045260246000fd5b60200101907effffffffffffffffffffffffffffffffffffffffffffffffffffffffffffff1916908160001a905350600a88611f129190612fe8565b97505050611e4a565b819450505050505b919050565b606060405180602001604052806000815250905090565b60606000821415611f87576040518060400160405280600181526020017f300000000000000000000000000000000000000000000000000000000000000081525090506120e7565b600082905060005b60008214611fb9578080611fa290613201565b915050600a82611fb29190612fe8565b9150611f8f565b60008167ffffffffffffffff811115611ffb577f4e487b7100000000000000000000000000000000000000000000000000000000600052604160045260246000fd5b6040519080825280601f01601f19166020018201604052801561202d5781602001600182028036833780820191505090505b5090505b600085146120e0576001826120469190613073565b9150600a85612055919061324a565b60306120619190612f5b565b60f81b81838151811061209d577f4e487b7100000000000000000000000000000000000000000000000000000000600052603260045260246000fd5b60200101907effffffffffffffffffffffffffffffffffffffffffffffffffffffffffffff1916908160001a905350600a856120d99190612fe8565b9450612031565b8093505050505b919050565b505050565b60006121128473ffffffffffffffffffffffffffffffffffffffff16612288565b1561227b578373ffffffffffffffffffffffffffffffffffffffff1663150b7a0261213b61170a565b8786866040518563ffffffff1660e01b815260040161215d9493929190612b18565b602060405180830381600087803b15801561217757600080fd5b505af19250505080156121a857506040513d601f19601f820116820180604052508101906121a591906125ce565b60015b61222b573d80600081146121d8576040519150601f19603f3d011682016040523d82523d6000602084013e6121dd565b606091505b50600081511415612223576040517f08c379a000000000000000000000000000000000000000000000000000000000815260040161221a90612c06565b60405180910390fd5b805181602001fd5b63150b7a0260e01b7bffffffffffffffffffffffffffffffffffffffffffffffffffffffff1916817bffffffffffffffffffffffffffffffffffffffffffffffffffffffff191614915050612280565b600190505b949350505050565b600080823b905060008111915050919050565b60006122ae6122a984612eab565b612e86565b9050828152602081018484840111156122c657600080fd5b6122d1848285613132565b509392505050565b60006122ec6122e784612edc565b612e86565b90508281526020810184848401111561230457600080fd5b61230f848285613132565b509392505050565b600081359050612326816137f8565b92915050565b60008135905061233b8161380f565b92915050565b60008135905061235081613826565b92915050565b6000813590506123658161383d565b92915050565b60008151905061237a8161383d565b92915050565b600082601f83011261239157600080fd5b81356123a184826020860161229b565b91505092915050565b600082601f8301126123bb57600080fd5b81356123cb8482602086016122d9565b91505092915050565b6000813590506123e381613854565b92915050565b6000813590506123f88161386b565b92915050565b60006020828403121561241057600080fd5b600061241e84828501612317565b91505092915050565b6000806040838503121561243a57600080fd5b600061244885828601612317565b925050602061245985828601612317565b9150509250929050565b60008060006060848603121561247857600080fd5b600061248686828701612317565b935050602061249786828701612317565b92505060406124a8868287016123d4565b9150509250925092565b600080600080608085870312156124c857600080fd5b60006124d687828801612317565b94505060206124e787828801612317565b93505060406124f8878288016123d4565b925050606085013567ffffffffffffffff81111561251557600080fd5b61252187828801612380565b91505092959194509250565b6000806040838503121561254057600080fd5b600061254e85828601612317565b925050602061255f8582860161232c565b9150509250929050565b6000806040838503121561257c57600080fd5b600061258a85828601612317565b925050602061259b858286016123d4565b9150509250929050565b6000602082840312156125b757600080fd5b60006125c584828501612356565b91505092915050565b6000602082840312156125e057600080fd5b60006125ee8482850161236b565b91505092915050565b60006020828403121561260957600080fd5b6000612617848285016123d4565b91505092915050565b600080600080600060a0868803121561263857600080fd5b6000612646888289016123d4565b955050602086013567ffffffffffffffff81111561266357600080fd5b61266f888289016123aa565b9450506040612680888289016123e9565b935050606061269188828901612341565b92505060806126a288828901612341565b9150509295509295909350565b600080604083850312156126c257600080fd5b60006126d0858286016123d4565b92505060206126e1858286016123d4565b9150509250929050565b6126f4816130a7565b82525050565b612703816130b9565b82525050565b612712816130c5565b82525050565b600061272382612f0d565b61272d8185612f23565b935061273d818560208601613141565b61274681613337565b840191505092915050565b600061275c82612f18565b6127668185612f3f565b9350612776818560208601613141565b61277f81613337565b840191505092915050565b600061279582612f18565b61279f8185612f50565b93506127af818560208601613141565b80840191505092915050565b60006127c8601583612f3f565b91506127d382613348565b602082019050919050565b60006127eb603283612f3f565b91506127f682613371565b604082019050919050565b600061280e601c83612f3f565b9150612819826133c0565b602082019050919050565b6000612831601683612f3f565b915061283c826133e9565b602082019050919050565b6000612854602483612f3f565b915061285f82613412565b604082019050919050565b6000612877601983612f3f565b915061288282613461565b602082019050919050565b600061289a602c83612f3f565b91506128a58261348a565b604082019050919050565b60006128bd601483612f3f565b91506128c8826134d9565b602082019050919050565b60006128e0603883612f3f565b91506128eb82613502565b604082019050919050565b6000612903602a83612f3f565b915061290e82613551565b604082019050919050565b6000612926602983612f3f565b9150612931826135a0565b604082019050919050565b6000612949602083612f3f565b9150612954826135ef565b602082019050919050565b600061296c602c83612f3f565b915061297782613618565b604082019050919050565b600061298f601a83612f50565b915061299a82613667565b601a82019050919050565b60006129b2602983612f3f565b91506129bd82613690565b604082019050919050565b60006129d5602f83612f3f565b91506129e0826136df565b604082019050919050565b60006129f8602183612f3f565b9150612a038261372e565b604082019050919050565b6000612a1b600083612f34565b9150612a268261377d565b600082019050919050565b6000612a3e601083612f3f565b9150612a4982613780565b602082019050919050565b6000612a61603183612f3f565b9150612a6c826137a9565b604082019050919050565b612a808161311b565b82525050565b612a8f81613125565b82525050565b6000612aa1828561278a565b9150612aad828461278a565b91508190509392505050565b6000612ac482612982565b9150612ad0828561278a565b9150612adc828461278a565b91508190509392505050565b6000612af382612a0e565b9150819050919050565b6000602082019050612b1260008301846126eb565b92915050565b6000608082019050612b2d60008301876126eb565b612b3a60208301866126eb565b612b476040830185612a77565b8181036060830152612b598184612718565b905095945050505050565b6000602082019050612b7960008301846126fa565b92915050565b6000608082019050612b946000830187612709565b612ba16020830186612a86565b612bae6040830185612709565b612bbb6060830184612709565b95945050505050565b60006020820190508181036000830152612bde8184612751565b905092915050565b60006020820190508181036000830152612bff816127bb565b9050919050565b60006020820190508181036000830152612c1f816127de565b9050919050565b60006020820190508181036000830152612c3f81612801565b9050919050565b60006020820190508181036000830152612c5f81612824565b9050919050565b60006020820190508181036000830152612c7f81612847565b9050919050565b60006020820190508181036000830152612c9f8161286a565b9050919050565b60006020820190508181036000830152612cbf8161288d565b9050919050565b60006020820190508181036000830152612cdf816128b0565b9050919050565b60006020820190508181036000830152612cff816128d3565b9050919050565b60006020820190508181036000830152612d1f816128f6565b9050919050565b60006020820190508181036000830152612d3f81612919565b9050919050565b60006020820190508181036000830152612d5f8161293c565b9050919050565b60006020820190508181036000830152612d7f8161295f565b9050919050565b60006020820190508181036000830152612d9f816129a5565b9050919050565b60006020820190508181036000830152612dbf816129c8565b9050919050565b60006020820190508181036000830152612ddf816129eb565b9050919050565b60006020820190508181036000830152612dff81612a31565b9050919050565b60006020820190508181036000830152612e1f81612a54565b9050919050565b6000602082019050612e3b6000830184612a77565b92915050565b6000608082019050612e566000830187612a77565b612e636020830186612a77565b612e706040830185612a77565b612e7d60608301846126eb565b95945050505050565b6000612e90612ea1565b9050612e9c82826131d0565b919050565b6000604051905090565b600067ffffffffffffffff821115612ec657612ec5613308565b5b612ecf82613337565b9050602081019050919050565b600067ffffffffffffffff821115612ef757612ef6613308565b5b612f0082613337565b9050602081019050919050565b600081519050919050565b600081519050919050565b600082825260208201905092915050565b600081905092915050565b600082825260208201905092915050565b600081905092915050565b6000612f668261311b565b9150612f718361311b565b9250827fffffffffffffffffffffffffffffffffffffffffffffffffffffffffffffffff03821115612fa657612fa561327b565b5b828201905092915050565b6000612fbc82613125565b9150612fc783613125565b92508260ff03821115612fdd57612fdc61327b565b5b828201905092915050565b6000612ff38261311b565b9150612ffe8361311b565b92508261300e5761300d6132aa565b5b828204905092915050565b60006130248261311b565b915061302f8361311b565b9250817fffffffffffffffffffffffffffffffffffffffffffffffffffffffffffffffff04831182151516156130685761306761327b565b5b828202905092915050565b600061307e8261311b565b91506130898361311b565b92508282101561309c5761309b61327b565b5b828203905092915050565b60006130b2826130fb565b9050919050565b60008115159050919050565b6000819050919050565b60007fffffffff0000000000000000000000000000000000000000000000000000000082169050919050565b600073ffffffffffffffffffffffffffffffffffffffff82169050919050565b6000819050919050565b600060ff82169050919050565b82818337600083830152505050565b60005b8381101561315f578082015181840152602081019050613144565b8381111561316e576000848401525b50505050565b600061317f8261311b565b915060008214156131935761319261327b565b5b600182039050919050565b600060028204905060018216806131b657607f821691505b602082108114156131ca576131c96132d9565b5b50919050565b6131d982613337565b810181811067ffffffffffffffff821117156131f8576131f7613308565b5b80604052505050565b600061320c8261311b565b91507fffffffffffffffffffffffffffffffffffffffffffffffffffffffffffffffff82141561323f5761323e61327b565b5b600182019050919050565b60006132558261311b565b91506132608361311b565b9250826132705761326f6132aa565b5b828206905092915050565b7f4e487b7100000000000000000000000000000000000000000000000000000000600052601160045260246000fd5b7f4e487b7100000000000000000000000000000000000000000000000000000000600052601260045260246000fd5b7f4e487b7100000000000000000000000000000000000000000000000000000000600052602260045260246000fd5b7f4e487b7100000000000000000000000000000000000000000000000000000000600052604160045260246000fd5b6000601f19601f8301169050919050565b7f5469636b657473206e6f7420617661696c61626c650000000000000000000000600082015250565b7f4552433732313a207472616e7366657220746f206e6f6e20455243373231526560008201527f63656976657220696d706c656d656e7465720000000000000000000000000000602082015250565b7f4552433732313a20746f6b656e20616c7265616479206d696e74656400000000600082015250565b7f5469636b6574207072696365206973206c617267657200000000000000000000600082015250565b7f4552433732313a207472616e7366657220746f20746865207a65726f2061646460008201527f7265737300000000000000000000000000000000000000000000000000000000602082015250565b7f4552433732313a20617070726f766520746f2063616c6c657200000000000000600082015250565b7f4552433732313a206f70657261746f7220717565727920666f72206e6f6e657860008201527f697374656e7420746f6b656e0000000000000000000000000000000000000000602082015250565b7f4e6f74206578697374696e67206576656e744964000000000000000000000000600082015250565b7f4552433732313a20617070726f76652063616c6c6572206973206e6f74206f7760008201527f6e6572206e6f7220617070726f76656420666f7220616c6c0000000000000000602082015250565b7f4552433732313a2062616c616e636520717565727920666f7220746865207a6560008201527f726f206164647265737300000000000000000000000000000000000000000000602082015250565b7f4552433732313a206f776e657220717565727920666f72206e6f6e657869737460008201527f656e7420746f6b656e0000000000000000000000000000000000000000000000602082015250565b7f4552433732313a206d696e7420746f20746865207a65726f2061646472657373600082015250565b7f4552433732313a20617070726f76656420717565727920666f72206e6f6e657860008201527f697374656e7420746f6b656e0000000000000000000000000000000000000000602082015250565b7f19457468657265756d205369676e6564204d6573736167653a0a000000000000600082015250565b7f4552433732313a207472616e73666572206f6620746f6b656e2074686174206960008201527f73206e6f74206f776e0000000000000000000000000000000000000000000000602082015250565b7f4552433732314d657461646174613a2055524920717565727920666f72206e6f60008201527f6e6578697374656e7420746f6b656e0000000000000000000000000000000000602082015250565b7f4552433732313a20617070726f76616c20746f2063757272656e74206f776e6560008201527f7200000000000000000000000000000000000000000000000000000000000000602082015250565b50565b7f5472616e73666572206661696c65642e00000000000000000000000000000000600082015250565b7f4552433732313a207472616e736665722063616c6c6572206973206e6f74206f60008201527f776e6572206e6f7220617070726f766564000000000000000000000000000000602082015250565b613801816130a7565b811461380c57600080fd5b50565b613818816130b9565b811461382357600080fd5b50565b61382f816130c5565b811461383a57600080fd5b50565b613846816130cf565b811461385157600080fd5b50565b61385d8161311b565b811461386857600080fd5b50565b61387481613125565b811461387f57600080fd5b5056fea2646970667358221220fe0674e459a161b2557f31d149daf966fd0d3d81249ec84fc58b98fd9206e6a264736f6c63430008040033",
  "linkReferences": {},
  "deployedLinkReferences": {}
}