{
  "_format": "hh-sol-artifact-1",
  "contractName": "Events",
  "sourceName": "contracts/events.sol",
  "abi": [
    {
      "inputs": [],
      "stateMutability": "nonpayable",
      "type": "constructor"
    },
    {
      "anonymous": false,
      "inputs": [
        {
          "indexed": true,
          "internalType": "address",
          "name": "owner",
          "type": "address"
        },
        {
          "indexed": true,
          "internalType": "address",
          "name": "approved",
          "type": "address"
        },
        {
          "indexed": true,
          "internalType": "uint256",
          "name": "tokenId",
          "type": "uint256"
        }
      ],
      "name": "Approval",
      "type": "event"
    },
    {
      "anonymous": false,
      "inputs": [
        {
          "indexed": true,
          "internalType": "address",
          "name": "owner",
          "type": "address"
        },
        {
          "indexed": true,
          "internalType": "address",
          "name": "operator",
          "type": "address"
        },
        {
          "indexed": false,
          "internalType": "bool",
          "name": "approved",
          "type": "bool"
        }
      ],
      "name": "ApprovalForAll",
      "type": "event"
    },
    {
      "anonymous": false,
      "inputs": [
        {
          "indexed": true,
          "internalType": "address",
          "name": "from",
          "type": "address"
        },
        {
          "indexed": true,
          "internalType": "address",
          "name": "to",
          "type": "address"
        },
        {
          "indexed": true,
          "internalType": "uint256",
          "name": "tokenId",
          "type": "uint256"
        }
      ],
      "name": "Transfer",
      "type": "event"
    },
    {
      "inputs": [
        {
          "internalType": "address",
          "name": "to",
          "type": "address"
        },
        {
          "internalType": "uint256",
          "name": "tokenId",
          "type": "uint256"
        }
      ],
      "name": "approve",
      "outputs": [],
      "stateMutability": "nonpayable",
      "type": "function"
    },
    {
      "inputs": [
        {
          "internalType": "address",
          "name": "owner",
          "type": "address"
        }
      ],
      "name": "balanceOf",
      "outputs": [
        {
          "internalType": "uint256",
          "name": "",
          "type": "uint256"
        }
      ],
      "stateMutability": "view",
      "type": "function"
    },
    {
      "inputs": [
        {
          "internalType": "uint128",
          "name": "numberOfTickets",
          "type": "uint128"
        },
        {
          "internalType": "uint128",
          "name": "pricePerTicket",
          "type": "uint128"
        }
      ],
      "name": "createEvent",
      "outputs": [],
      "stateMutability": "nonpayable",
      "type": "function"
    },
    {
      "inputs": [
        {
          "internalType": "uint256",
          "name": "",
          "type": "uint256"
        }
      ],
      "name": "events",
      "outputs": [
        {
          "internalType": "uint256",
          "name": "fundsCollected",
          "type": "uint256"
        },
        {
          "internalType": "uint128",
          "name": "ticketPrice",
          "type": "uint128"
        },
        {
          "internalType": "uint128",
          "name": "availableTickets",
          "type": "uint128"
        },
        {
          "internalType": "address",
          "name": "eventCreator",
          "type": "address"
        }
      ],
      "stateMutability": "view",
      "type": "function"
    },
    {
      "inputs": [
        {
          "internalType": "uint256",
          "name": "tokenId",
          "type": "uint256"
        }
      ],
      "name": "getApproved",
      "outputs": [
        {
          "internalType": "address",
          "name": "",
          "type": "address"
        }
      ],
      "stateMutability": "view",
      "type": "function"
    },
    {
      "inputs": [
        {
          "internalType": "address",
          "name": "owner",
          "type": "address"
        },
        {
          "internalType": "address",
          "name": "operator",
          "type": "address"
        }
      ],
      "name": "isApprovedForAll",
      "outputs": [
        {
          "internalType": "bool",
          "name": "",
          "type": "bool"
        }
      ],
      "stateMutability": "view",
      "type": "function"
    },
    {
      "inputs": [
        {
          "internalType": "uint256",
          "name": "eventId",
          "type": "uint256"
        }
      ],
      "name": "mintTicket",
      "outputs": [
        {
          "internalType": "uint256",
          "name": "",
          "type": "uint256"
        }
      ],
      "stateMutability": "payable",
      "type": "function"
    },
    {
      "inputs": [],
      "name": "name",
      "outputs": [
        {
          "internalType": "string",
          "name": "",
          "type": "string"
        }
      ],
      "stateMutability": "view",
      "type": "function"
    },
    {
      "inputs": [
        {
          "internalType": "uint256",
          "name": "tokenId",
          "type": "uint256"
        }
      ],
      "name": "ownerOf",
      "outputs": [
        {
          "internalType": "address",
          "name": "",
          "type": "address"
        }
      ],
      "stateMutability": "view",
      "type": "function"
    },
    {
      "inputs": [
        {
          "internalType": "address",
          "name": "from",
          "type": "address"
        },
        {
          "internalType": "address",
          "name": "to",
          "type": "address"
        },
        {
          "internalType": "uint256",
          "name": "tokenId",
          "type": "uint256"
        }
      ],
      "name": "safeTransferFrom",
      "outputs": [],
      "stateMutability": "nonpayable",
      "type": "function"
    },
    {
      "inputs": [
        {
          "internalType": "address",
          "name": "from",
          "type": "address"
        },
        {
          "internalType": "address",
          "name": "to",
          "type": "address"
        },
        {
          "internalType": "uint256",
          "name": "tokenId",
          "type": "uint256"
        },
        {
          "internalType": "bytes",
          "name": "_data",
          "type": "bytes"
        }
      ],
      "name": "safeTransferFrom",
      "outputs": [],
      "stateMutability": "nonpayable",
      "type": "function"
    },
    {
      "inputs": [
        {
          "internalType": "address",
          "name": "operator",
          "type": "address"
        },
        {
          "internalType": "bool",
          "name": "approved",
          "type": "bool"
        }
      ],
      "name": "setApprovalForAll",
      "outputs": [],
      "stateMutability": "nonpayable",
      "type": "function"
    },
    {
      "inputs": [
        {
          "internalType": "bytes4",
          "name": "interfaceId",
          "type": "bytes4"
        }
      ],
      "name": "supportsInterface",
      "outputs": [
        {
          "internalType": "bool",
          "name": "",
          "type": "bool"
        }
      ],
      "stateMutability": "view",
      "type": "function"
    },
    {
      "inputs": [],
      "name": "symbol",
      "outputs": [
        {
          "internalType": "string",
          "name": "",
          "type": "string"
        }
      ],
      "stateMutability": "view",
      "type": "function"
    },
    {
      "inputs": [
        {
          "internalType": "uint256",
          "name": "tokenId",
          "type": "uint256"
        }
      ],
      "name": "tokenURI",
      "outputs": [
        {
          "internalType": "string",
          "name": "",
          "type": "string"
        }
      ],
      "stateMutability": "view",
      "type": "function"
    },
    {
      "inputs": [
        {
          "internalType": "address",
          "name": "from",
          "type": "address"
        },
        {
          "internalType": "address",
          "name": "to",
          "type": "address"
        },
        {
          "internalType": "uint256",
          "name": "tokenId",
          "type": "uint256"
        }
      ],
      "name": "transferFrom",
      "outputs": [],
      "stateMutability": "nonpayable",
      "type": "function"
    },
    {
      "inputs": [
        {
          "internalType": "uint256",
          "name": "ticketId",
          "type": "uint256"
        },
        {
          "internalType": "string",
          "name": "signedMessage",
          "type": "string"
        }
      ],
      "name": "verifyTicketOwner",
      "outputs": [
        {
          "internalType": "bool",
          "name": "",
          "type": "bool"
        }
      ],
      "stateMutability": "view",
      "type": "function"
    },
    {
      "inputs": [],
      "name": "withdrawFunds",
      "outputs": [],
      "stateMutability": "nonpayable",
      "type": "function"
    }
  ],
  "bytecode": "0x60806040523480156200001157600080fd5b506040518060400160405280600f81526020017f5355206576656e742073797374656d00000000000000000000000000000000008152506040518060400160405280600381526020017f5355450000000000000000000000000000000000000000000000000000000000815250816000908051906020019062000096929190620000b8565b508060019080519060200190620000af929190620000b8565b505050620001cd565b828054620000c69062000168565b90600052602060002090601f016020900481019282620000ea576000855562000136565b82601f106200010557805160ff191683800117855562000136565b8280016001018555821562000136579182015b828111156200013557825182559160200191906001019062000118565b5b50905062000145919062000149565b5090565b5b80821115620001645760008160009055506001016200014a565b5090565b600060028204905060018216806200018157607f821691505b602082108114156200019857620001976200019e565b5b50919050565b7f4e487b7100000000000000000000000000000000000000000000000000000000600052602260045260246000fd5b61338a80620001dd6000396000f3fe6080604052600436106101095760003560e01c806342842e0e1161009557806395d89b411161006457806395d89b4114610395578063a22cb465146103c0578063b88d4fde146103e9578063c87b56dd14610412578063e985e9c51461044f57610109565b806342842e0e146102c95780635016b864146102f25780636352211e1461031b57806370a082311461035857610109565b80630b791430116100dc5780630b791430146101dc57806323b872dd1461021c57806324600fc314610245578063256d52f61461025c5780632771e5111461028c57610109565b806301ffc9a71461010e57806306fdde031461014b578063081812fc14610176578063095ea7b3146101b3575b600080fd5b34801561011a57600080fd5b5061013560048036038101906101309190612368565b61048c565b6040516101429190612822565b60405180910390f35b34801561015757600080fd5b5061016061056e565b60405161016d919061283d565b60405180910390f35b34801561018257600080fd5b5061019d600480360381019061019891906123f6565b610600565b6040516101aa91906127bb565b60405180910390f35b3480156101bf57600080fd5b506101da60048036038101906101d5919061232c565b610685565b005b3480156101e857600080fd5b5061020360048036038101906101fe91906123f6565b61079d565b6040516102139493929190612a5a565b60405180910390f35b34801561022857600080fd5b50610243600480360381019061023e9190612226565b610835565b005b34801561025157600080fd5b5061025a610895565b005b610276600480360381019061027191906123f6565b610b53565b6040516102839190612a3f565b60405180910390f35b34801561029857600080fd5b506102b360048036038101906102ae919061241f565b610dc5565b6040516102c09190612822565b60405180910390f35b3480156102d557600080fd5b506102f060048036038101906102eb9190612226565b610e12565b005b3480156102fe57600080fd5b50610319600480360381019061031491906123ba565b610e32565b005b34801561032757600080fd5b50610342600480360381019061033d91906123f6565b611005565b60405161034f91906127bb565b60405180910390f35b34801561036457600080fd5b5061037f600480360381019061037a91906121c1565b6110b7565b60405161038c9190612a3f565b60405180910390f35b3480156103a157600080fd5b506103aa61116f565b6040516103b7919061283d565b60405180910390f35b3480156103cc57600080fd5b506103e760048036038101906103e291906122f0565b611201565b005b3480156103f557600080fd5b50610410600480360381019061040b9190612275565b611382565b005b34801561041e57600080fd5b50610439600480360381019061043491906123f6565b6113e4565b604051610446919061283d565b60405180910390f35b34801561045b57600080fd5b50610476600480360381019061047191906121ea565b61148b565b6040516104839190612822565b60405180910390f35b60007f80ac58cd000000000000000000000000000000000000000000000000000000007bffffffffffffffffffffffffffffffffffffffffffffffffffffffff1916827bffffffffffffffffffffffffffffffffffffffffffffffffffffffff1916148061055757507f5b5e139f000000000000000000000000000000000000000000000000000000007bffffffffffffffffffffffffffffffffffffffffffffffffffffffff1916827bffffffffffffffffffffffffffffffffffffffffffffffffffffffff1916145b8061056757506105668261151f565b5b9050919050565b60606000805461057d90612d2b565b80601f01602080910402602001604051908101604052809291908181526020018280546105a990612d2b565b80156105f65780601f106105cb576101008083540402835291602001916105f6565b820191906000526020600020905b8154815290600101906020018083116105d957829003601f168201915b5050505050905090565b600061060b82611589565b61064a576040517f08c379a00000000000000000000000000000000000000000000000000000000081526004016106419061297f565b60405180910390fd5b6004600083815260200190815260200160002060009054906101000a900473ffffffffffffffffffffffffffffffffffffffff169050919050565b600061069082611005565b90508073ffffffffffffffffffffffffffffffffffffffff168373ffffffffffffffffffffffffffffffffffffffff161415610701576040517f08c379a00000000000000000000000000000000000000000000000000000000081526004016106f8906129df565b60405180910390fd5b8073ffffffffffffffffffffffffffffffffffffffff166107206115f5565b73ffffffffffffffffffffffffffffffffffffffff16148061074f575061074e816107496115f5565b61148b565b5b61078e576040517f08c379a0000000000000000000000000000000000000000000000000000000008152600401610785906128ff565b60405180910390fd5b61079883836115fd565b505050565b600781815481106107ad57600080fd5b90600052602060002090600302016000915090508060000154908060010160009054906101000a90046fffffffffffffffffffffffffffffffff16908060010160109054906101000a90046fffffffffffffffffffffffffffffffff16908060020160009054906101000a900473ffffffffffffffffffffffffffffffffffffffff16905084565b6108466108406115f5565b826116b6565b610885576040517f08c379a000000000000000000000000000000000000000000000000000000000815260040161087c90612a1f565b60405180910390fd5b610890838383611794565b505050565b6000805b600860003373ffffffffffffffffffffffffffffffffffffffff1673ffffffffffffffffffffffffffffffffffffffff16815260200190815260200160002080549050811015610aa2576007600860003373ffffffffffffffffffffffffffffffffffffffff1673ffffffffffffffffffffffffffffffffffffffff168152602001908152602001600020828154811061095c577f4e487b7100000000000000000000000000000000000000000000000000000000600052603260045260246000fd5b90600052602060002001548154811061099e577f4e487b7100000000000000000000000000000000000000000000000000000000600052603260045260246000fd5b906000526020600020906003020160000154826109bb9190612b74565b915060006007600860003373ffffffffffffffffffffffffffffffffffffffff1673ffffffffffffffffffffffffffffffffffffffff1681526020019081526020016000208381548110610a38577f4e487b7100000000000000000000000000000000000000000000000000000000600052603260045260246000fd5b906000526020600020015481548110610a7a577f4e487b7100000000000000000000000000000000000000000000000000000000600052603260045260246000fd5b9060005260206000209060030201600001819055508080610a9a90612d8e565b915050610899565b5060003373ffffffffffffffffffffffffffffffffffffffff1682604051610ac9906127a6565b60006040518083038185875af1925050503d8060008114610b06576040519150601f19603f3d011682016040523d82523d6000602084013e610b0b565b606091505b5050905080610b4f576040517f08c379a0000000000000000000000000000000000000000000000000000000008152600401610b46906129ff565b60405180910390fd5b5050565b60008160078054905011610b6657600080fd5b600060078381548110610ba2577f4e487b7100000000000000000000000000000000000000000000000000000000600052603260045260246000fd5b906000526020600020906003020160010160109054906101000a90046fffffffffffffffffffffffffffffffff166fffffffffffffffffffffffffffffffff1611610bec57600080fd5b60078281548110610c26577f4e487b7100000000000000000000000000000000000000000000000000000000600052603260045260246000fd5b906000526020600020906003020160010160009054906101000a90046fffffffffffffffffffffffffffffffff166fffffffffffffffffffffffffffffffff16341015610c7257600080fd5b60078281548110610cac577f4e487b7100000000000000000000000000000000000000000000000000000000600052603260045260246000fd5b9060005260206000209060030201600101601081819054906101000a90046fffffffffffffffffffffffffffffffff1680929190610ce990612d01565b91906101000a8154816fffffffffffffffffffffffffffffffff02191690836fffffffffffffffffffffffffffffffff160217905550503460078381548110610d5b577f4e487b7100000000000000000000000000000000000000000000000000000000600052603260045260246000fd5b90600052602060002090600302016000016000828254610d7b9190612b74565b925050819055506000610d8e60066119f0565b9050610d9a60066119fe565b826009600083815260200190815260200160002081905550610dbc3382611a14565b80915050919050565b6000610dd082611be2565b60008073ffffffffffffffffffffffffffffffffffffffff16610df285611005565b73ffffffffffffffffffffffffffffffffffffffff161491505092915050565b610e2d83838360405180602001604052806000815250611382565b505050565b6007604051806080016040528060008152602001836fffffffffffffffffffffffffffffffff168152602001846fffffffffffffffffffffffffffffffff1681526020013373ffffffffffffffffffffffffffffffffffffffff1681525090806001815401808255809150506001900390600052602060002090600302016000909190919091506000820151816000015560208201518160010160006101000a8154816fffffffffffffffffffffffffffffffff02191690836fffffffffffffffffffffffffffffffff16021790555060408201518160010160106101000a8154816fffffffffffffffffffffffffffffffff02191690836fffffffffffffffffffffffffffffffff16021790555060608201518160020160006101000a81548173ffffffffffffffffffffffffffffffffffffffff021916908373ffffffffffffffffffffffffffffffffffffffff1602179055505050600860003373ffffffffffffffffffffffffffffffffffffffff1673ffffffffffffffffffffffffffffffffffffffff1681526020019081526020016000206001600780549050610fdb9190612bfb565b90806001815401808255809150506001900390600052602060002001600090919091909150555050565b6000806002600084815260200190815260200160002060009054906101000a900473ffffffffffffffffffffffffffffffffffffffff169050600073ffffffffffffffffffffffffffffffffffffffff168173ffffffffffffffffffffffffffffffffffffffff1614156110ae576040517f08c379a00000000000000000000000000000000000000000000000000000000081526004016110a59061293f565b60405180910390fd5b80915050919050565b60008073ffffffffffffffffffffffffffffffffffffffff168273ffffffffffffffffffffffffffffffffffffffff161415611128576040517f08c379a000000000000000000000000000000000000000000000000000000000815260040161111f9061291f565b60405180910390fd5b600360008373ffffffffffffffffffffffffffffffffffffffff1673ffffffffffffffffffffffffffffffffffffffff168152602001908152602001600020549050919050565b60606001805461117e90612d2b565b80601f01602080910402602001604051908101604052809291908181526020018280546111aa90612d2b565b80156111f75780601f106111cc576101008083540402835291602001916111f7565b820191906000526020600020905b8154815290600101906020018083116111da57829003601f168201915b5050505050905090565b6112096115f5565b73ffffffffffffffffffffffffffffffffffffffff168273ffffffffffffffffffffffffffffffffffffffff161415611277576040517f08c379a000000000000000000000000000000000000000000000000000000000815260040161126e906128bf565b60405180910390fd5b80600560006112846115f5565b73ffffffffffffffffffffffffffffffffffffffff1673ffffffffffffffffffffffffffffffffffffffff16815260200190815260200160002060008473ffffffffffffffffffffffffffffffffffffffff1673ffffffffffffffffffffffffffffffffffffffff16815260200190815260200160002060006101000a81548160ff0219169083151502179055508173ffffffffffffffffffffffffffffffffffffffff166113316115f5565b73ffffffffffffffffffffffffffffffffffffffff167f17307eab39ab6107e8899845ad3d59bd9653f200f220920489ca2b5937696c31836040516113769190612822565b60405180910390a35050565b61139361138d6115f5565b836116b6565b6113d2576040517f08c379a00000000000000000000000000000000000000000000000000000000081526004016113c990612a1f565b60405180910390fd5b6113de84848484611c7b565b50505050565b60606113ef82611589565b61142e576040517f08c379a0000000000000000000000000000000000000000000000000000000008152600401611425906129bf565b60405180910390fd5b6000611438611cd7565b905060008151116114585760405180602001604052806000815250611483565b8061146284611cee565b604051602001611473929190612782565b6040516020818303038152906040525b915050919050565b6000600560008473ffffffffffffffffffffffffffffffffffffffff1673ffffffffffffffffffffffffffffffffffffffff16815260200190815260200160002060008373ffffffffffffffffffffffffffffffffffffffff1673ffffffffffffffffffffffffffffffffffffffff16815260200190815260200160002060009054906101000a900460ff16905092915050565b60007f01ffc9a7000000000000000000000000000000000000000000000000000000007bffffffffffffffffffffffffffffffffffffffffffffffffffffffff1916827bffffffffffffffffffffffffffffffffffffffffffffffffffffffff1916149050919050565b60008073ffffffffffffffffffffffffffffffffffffffff166002600084815260200190815260200160002060009054906101000a900473ffffffffffffffffffffffffffffffffffffffff1673ffffffffffffffffffffffffffffffffffffffff1614159050919050565b600033905090565b816004600083815260200190815260200160002060006101000a81548173ffffffffffffffffffffffffffffffffffffffff021916908373ffffffffffffffffffffffffffffffffffffffff160217905550808273ffffffffffffffffffffffffffffffffffffffff1661167083611005565b73ffffffffffffffffffffffffffffffffffffffff167f8c5be1e5ebec7d5bd14f71427d1e84f3dd0314c0f7b2291e5b200ac8c7c3b92560405160405180910390a45050565b60006116c182611589565b611700576040517f08c379a00000000000000000000000000000000000000000000000000000000081526004016116f7906128df565b60405180910390fd5b600061170b83611005565b90508073ffffffffffffffffffffffffffffffffffffffff168473ffffffffffffffffffffffffffffffffffffffff16148061177a57508373ffffffffffffffffffffffffffffffffffffffff1661176284610600565b73ffffffffffffffffffffffffffffffffffffffff16145b8061178b575061178a818561148b565b5b91505092915050565b8273ffffffffffffffffffffffffffffffffffffffff166117b482611005565b73ffffffffffffffffffffffffffffffffffffffff161461180a576040517f08c379a00000000000000000000000000000000000000000000000000000000081526004016118019061299f565b60405180910390fd5b600073ffffffffffffffffffffffffffffffffffffffff168273ffffffffffffffffffffffffffffffffffffffff16141561187a576040517f08c379a00000000000000000000000000000000000000000000000000000000081526004016118719061289f565b60405180910390fd5b611885838383611e9b565b6118906000826115fd565b6001600360008573ffffffffffffffffffffffffffffffffffffffff1673ffffffffffffffffffffffffffffffffffffffff16815260200190815260200160002060008282546118e09190612bfb565b925050819055506001600360008473ffffffffffffffffffffffffffffffffffffffff1673ffffffffffffffffffffffffffffffffffffffff16815260200190815260200160002060008282546119379190612b74565b92505081905550816002600083815260200190815260200160002060006101000a81548173ffffffffffffffffffffffffffffffffffffffff021916908373ffffffffffffffffffffffffffffffffffffffff160217905550808273ffffffffffffffffffffffffffffffffffffffff168473ffffffffffffffffffffffffffffffffffffffff167fddf252ad1be2c89b69c2b068fc378daa952ba7f163c4a11628f55a4df523b3ef60405160405180910390a4505050565b600081600001549050919050565b6001816000016000828254019250508190555050565b600073ffffffffffffffffffffffffffffffffffffffff168273ffffffffffffffffffffffffffffffffffffffff161415611a84576040517f08c379a0000000000000000000000000000000000000000000000000000000008152600401611a7b9061295f565b60405180910390fd5b611a8d81611589565b15611acd576040517f08c379a0000000000000000000000000000000000000000000000000000000008152600401611ac49061287f565b60405180910390fd5b611ad960008383611e9b565b6001600360008473ffffffffffffffffffffffffffffffffffffffff1673ffffffffffffffffffffffffffffffffffffffff1681526020019081526020016000206000828254611b299190612b74565b92505081905550816002600083815260200190815260200160002060006101000a81548173ffffffffffffffffffffffffffffffffffffffff021916908373ffffffffffffffffffffffffffffffffffffffff160217905550808273ffffffffffffffffffffffffffffffffffffffff16600073ffffffffffffffffffffffffffffffffffffffff167fddf252ad1be2c89b69c2b068fc378daa952ba7f163c4a11628f55a4df523b3ef60405160405180910390a45050565b611c7881604051602401611bf6919061283d565b6040516020818303038152906040527f41304fac000000000000000000000000000000000000000000000000000000007bffffffffffffffffffffffffffffffffffffffffffffffffffffffff19166020820180517bffffffffffffffffffffffffffffffffffffffffffffffffffffffff8381831617835250505050611ea0565b50565b611c86848484611794565b611c9284848484611ec9565b611cd1576040517f08c379a0000000000000000000000000000000000000000000000000000000008152600401611cc89061285f565b60405180910390fd5b50505050565b606060405180602001604052806000815250905090565b60606000821415611d36576040518060400160405280600181526020017f30000000000000000000000000000000000000000000000000000000000000008152509050611e96565b600082905060005b60008214611d68578080611d5190612d8e565b915050600a82611d619190612bca565b9150611d3e565b60008167ffffffffffffffff811115611daa577f4e487b7100000000000000000000000000000000000000000000000000000000600052604160045260246000fd5b6040519080825280601f01601f191660200182016040528015611ddc5781602001600182028036833780820191505090505b5090505b60008514611e8f57600182611df59190612bfb565b9150600a85611e049190612dd7565b6030611e109190612b74565b60f81b818381518110611e4c577f4e487b7100000000000000000000000000000000000000000000000000000000600052603260045260246000fd5b60200101907effffffffffffffffffffffffffffffffffffffffffffffffffffffffffffff1916908160001a905350600a85611e889190612bca565b9450611de0565b8093505050505b919050565b505050565b60008151905060006a636f6e736f6c652e6c6f679050602083016000808483855afa5050505050565b6000611eea8473ffffffffffffffffffffffffffffffffffffffff16612060565b15612053578373ffffffffffffffffffffffffffffffffffffffff1663150b7a02611f136115f5565b8786866040518563ffffffff1660e01b8152600401611f3594939291906127d6565b602060405180830381600087803b158015611f4f57600080fd5b505af1925050508015611f8057506040513d601f19601f82011682018060405250810190611f7d9190612391565b60015b612003573d8060008114611fb0576040519150601f19603f3d011682016040523d82523d6000602084013e611fb5565b606091505b50600081511415611ffb576040517f08c379a0000000000000000000000000000000000000000000000000000000008152600401611ff29061285f565b60405180910390fd5b805181602001fd5b63150b7a0260e01b7bffffffffffffffffffffffffffffffffffffffffffffffffffffffff1916817bffffffffffffffffffffffffffffffffffffffffffffffffffffffff191614915050612058565b600190505b949350505050565b600080823b905060008111915050919050565b600061208661208184612ac4565b612a9f565b90508281526020810184848401111561209e57600080fd5b6120a9848285612cbf565b509392505050565b60006120c46120bf84612af5565b612a9f565b9050828152602081018484840111156120dc57600080fd5b6120e7848285612cbf565b509392505050565b6000813590506120fe816132e1565b92915050565b600081359050612113816132f8565b92915050565b6000813590506121288161330f565b92915050565b60008151905061213d8161330f565b92915050565b600082601f83011261215457600080fd5b8135612164848260208601612073565b91505092915050565b600082601f83011261217e57600080fd5b813561218e8482602086016120b1565b91505092915050565b6000813590506121a681613326565b92915050565b6000813590506121bb8161333d565b92915050565b6000602082840312156121d357600080fd5b60006121e1848285016120ef565b91505092915050565b600080604083850312156121fd57600080fd5b600061220b858286016120ef565b925050602061221c858286016120ef565b9150509250929050565b60008060006060848603121561223b57600080fd5b6000612249868287016120ef565b935050602061225a868287016120ef565b925050604061226b868287016121ac565b9150509250925092565b6000806000806080858703121561228b57600080fd5b6000612299878288016120ef565b94505060206122aa878288016120ef565b93505060406122bb878288016121ac565b925050606085013567ffffffffffffffff8111156122d857600080fd5b6122e487828801612143565b91505092959194509250565b6000806040838503121561230357600080fd5b6000612311858286016120ef565b925050602061232285828601612104565b9150509250929050565b6000806040838503121561233f57600080fd5b600061234d858286016120ef565b925050602061235e858286016121ac565b9150509250929050565b60006020828403121561237a57600080fd5b600061238884828501612119565b91505092915050565b6000602082840312156123a357600080fd5b60006123b18482850161212e565b91505092915050565b600080604083850312156123cd57600080fd5b60006123db85828601612197565b92505060206123ec85828601612197565b9150509250929050565b60006020828403121561240857600080fd5b6000612416848285016121ac565b91505092915050565b6000806040838503121561243257600080fd5b6000612440858286016121ac565b925050602083013567ffffffffffffffff81111561245d57600080fd5b6124698582860161216d565b9150509250929050565b61247c81612c2f565b82525050565b61248b81612c41565b82525050565b600061249c82612b26565b6124a68185612b3c565b93506124b6818560208601612cce565b6124bf81612ec4565b840191505092915050565b60006124d582612b31565b6124df8185612b58565b93506124ef818560208601612cce565b6124f881612ec4565b840191505092915050565b600061250e82612b31565b6125188185612b69565b9350612528818560208601612cce565b80840191505092915050565b6000612541603283612b58565b915061254c82612ed5565b604082019050919050565b6000612564601c83612b58565b915061256f82612f24565b602082019050919050565b6000612587602483612b58565b915061259282612f4d565b604082019050919050565b60006125aa601983612b58565b91506125b582612f9c565b602082019050919050565b60006125cd602c83612b58565b91506125d882612fc5565b604082019050919050565b60006125f0603883612b58565b91506125fb82613014565b604082019050919050565b6000612613602a83612b58565b915061261e82613063565b604082019050919050565b6000612636602983612b58565b9150612641826130b2565b604082019050919050565b6000612659602083612b58565b915061266482613101565b602082019050919050565b600061267c602c83612b58565b91506126878261312a565b604082019050919050565b600061269f602983612b58565b91506126aa82613179565b604082019050919050565b60006126c2602f83612b58565b91506126cd826131c8565b604082019050919050565b60006126e5602183612b58565b91506126f082613217565b604082019050919050565b6000612708600083612b4d565b915061271382613266565b600082019050919050565b600061272b601083612b58565b915061273682613269565b602082019050919050565b600061274e603183612b58565b915061275982613292565b604082019050919050565b61276d81612c79565b82525050565b61277c81612cb5565b82525050565b600061278e8285612503565b915061279a8284612503565b91508190509392505050565b60006127b1826126fb565b9150819050919050565b60006020820190506127d06000830184612473565b92915050565b60006080820190506127eb6000830187612473565b6127f86020830186612473565b6128056040830185612773565b81810360608301526128178184612491565b905095945050505050565b60006020820190506128376000830184612482565b92915050565b6000602082019050818103600083015261285781846124ca565b905092915050565b6000602082019050818103600083015261287881612534565b9050919050565b6000602082019050818103600083015261289881612557565b9050919050565b600060208201905081810360008301526128b88161257a565b9050919050565b600060208201905081810360008301526128d88161259d565b9050919050565b600060208201905081810360008301526128f8816125c0565b9050919050565b60006020820190508181036000830152612918816125e3565b9050919050565b6000602082019050818103600083015261293881612606565b9050919050565b6000602082019050818103600083015261295881612629565b9050919050565b600060208201905081810360008301526129788161264c565b9050919050565b600060208201905081810360008301526129988161266f565b9050919050565b600060208201905081810360008301526129b881612692565b9050919050565b600060208201905081810360008301526129d8816126b5565b9050919050565b600060208201905081810360008301526129f8816126d8565b9050919050565b60006020820190508181036000830152612a188161271e565b9050919050565b60006020820190508181036000830152612a3881612741565b9050919050565b6000602082019050612a546000830184612773565b92915050565b6000608082019050612a6f6000830187612773565b612a7c6020830186612764565b612a896040830185612764565b612a966060830184612473565b95945050505050565b6000612aa9612aba565b9050612ab58282612d5d565b919050565b6000604051905090565b600067ffffffffffffffff821115612adf57612ade612e95565b5b612ae882612ec4565b9050602081019050919050565b600067ffffffffffffffff821115612b1057612b0f612e95565b5b612b1982612ec4565b9050602081019050919050565b600081519050919050565b600081519050919050565b600082825260208201905092915050565b600081905092915050565b600082825260208201905092915050565b600081905092915050565b6000612b7f82612cb5565b9150612b8a83612cb5565b9250827fffffffffffffffffffffffffffffffffffffffffffffffffffffffffffffffff03821115612bbf57612bbe612e08565b5b828201905092915050565b6000612bd582612cb5565b9150612be083612cb5565b925082612bf057612bef612e37565b5b828204905092915050565b6000612c0682612cb5565b9150612c1183612cb5565b925082821015612c2457612c23612e08565b5b828203905092915050565b6000612c3a82612c95565b9050919050565b60008115159050919050565b60007fffffffff0000000000000000000000000000000000000000000000000000000082169050919050565b60006fffffffffffffffffffffffffffffffff82169050919050565b600073ffffffffffffffffffffffffffffffffffffffff82169050919050565b6000819050919050565b82818337600083830152505050565b60005b83811015612cec578082015181840152602081019050612cd1565b83811115612cfb576000848401525b50505050565b6000612d0c82612c79565b91506000821415612d2057612d1f612e08565b5b600182039050919050565b60006002820490506001821680612d4357607f821691505b60208210811415612d5757612d56612e66565b5b50919050565b612d6682612ec4565b810181811067ffffffffffffffff82111715612d8557612d84612e95565b5b80604052505050565b6000612d9982612cb5565b91507fffffffffffffffffffffffffffffffffffffffffffffffffffffffffffffffff821415612dcc57612dcb612e08565b5b600182019050919050565b6000612de282612cb5565b9150612ded83612cb5565b925082612dfd57612dfc612e37565b5b828206905092915050565b7f4e487b7100000000000000000000000000000000000000000000000000000000600052601160045260246000fd5b7f4e487b7100000000000000000000000000000000000000000000000000000000600052601260045260246000fd5b7f4e487b7100000000000000000000000000000000000000000000000000000000600052602260045260246000fd5b7f4e487b7100000000000000000000000000000000000000000000000000000000600052604160045260246000fd5b6000601f19601f8301169050919050565b7f4552433732313a207472616e7366657220746f206e6f6e20455243373231526560008201527f63656976657220696d706c656d656e7465720000000000000000000000000000602082015250565b7f4552433732313a20746f6b656e20616c7265616479206d696e74656400000000600082015250565b7f4552433732313a207472616e7366657220746f20746865207a65726f2061646460008201527f7265737300000000000000000000000000000000000000000000000000000000602082015250565b7f4552433732313a20617070726f766520746f2063616c6c657200000000000000600082015250565b7f4552433732313a206f70657261746f7220717565727920666f72206e6f6e657860008201527f697374656e7420746f6b656e0000000000000000000000000000000000000000602082015250565b7f4552433732313a20617070726f76652063616c6c6572206973206e6f74206f7760008201527f6e6572206e6f7220617070726f76656420666f7220616c6c0000000000000000602082015250565b7f4552433732313a2062616c616e636520717565727920666f7220746865207a6560008201527f726f206164647265737300000000000000000000000000000000000000000000602082015250565b7f4552433732313a206f776e657220717565727920666f72206e6f6e657869737460008201527f656e7420746f6b656e0000000000000000000000000000000000000000000000602082015250565b7f4552433732313a206d696e7420746f20746865207a65726f2061646472657373600082015250565b7f4552433732313a20617070726f76656420717565727920666f72206e6f6e657860008201527f697374656e7420746f6b656e0000000000000000000000000000000000000000602082015250565b7f4552433732313a207472616e73666572206f6620746f6b656e2074686174206960008201527f73206e6f74206f776e0000000000000000000000000000000000000000000000602082015250565b7f4552433732314d657461646174613a2055524920717565727920666f72206e6f60008201527f6e6578697374656e7420746f6b656e0000000000000000000000000000000000602082015250565b7f4552433732313a20617070726f76616c20746f2063757272656e74206f776e6560008201527f7200000000000000000000000000000000000000000000000000000000000000602082015250565b50565b7f5472616e73666572206661696c65642e00000000000000000000000000000000600082015250565b7f4552433732313a207472616e736665722063616c6c6572206973206e6f74206f60008201527f776e6572206e6f7220617070726f766564000000000000000000000000000000602082015250565b6132ea81612c2f565b81146132f557600080fd5b50565b61330181612c41565b811461330c57600080fd5b50565b61331881612c4d565b811461332357600080fd5b50565b61332f81612c79565b811461333a57600080fd5b50565b61334681612cb5565b811461335157600080fd5b5056fea2646970667358221220ad0397f2d970f01e62865339d86e5ab302e64deda0464c91533e50418ae0afc164736f6c63430008040033",
  "linkReferences": {},
  "deployedLinkReferences": {}
}